:100000000C9434000C943E000C943E000C943E0082
:100010000C943E000C943E000C943E000C943E0068
:100020000C943E000C943E000C943E000C943E0058
:100030000C943E000C943E000C943E000C943E0048
:100040000C943E000C943E000C943E000C943E0038
:100050000C943E000C943E000C943E000C943E0028
:100060000C943E000C943E0011241FBECFEFD8E04C
:10007000DEBFCDBF0E9454000C94D8000C94000049
:1000800095B121E030E001C0220F8A95EAF72927D7
:1000900025B9089594B121E030E001C0220F8A957E
:1000A000EAF7292B24B9089581E00E944A00C12C67
:1000B000D12C7601C701B6010E94770020E030E420
:1000C0004CE957E40E947200811106C081E00E9451
:1000D0004000C12CD12C76018FEFC81AD80AE80A4B
:1000E000F80AE8CF0E94B40008F481E00895E8948B
:1000F00009C097FB3EF490958095709561957F4F70
:100100008F4F9F4F9923A9F0F92F96E9BB2793951D
:10011000F695879577956795B795F111F8CFFAF42D
:10012000BB0F11F460FF1BC06F5F7F4F8F4F9F4F5E
:1001300016C0882311F096E911C0772321F09EE8BC
:10014000872F762F05C0662371F096E8862F70E022
:1001500060E02AF09A95660F771F881FDAF7880FFC
:100160009695879597F90895990F0008550FAA0B52
:10017000E0E8FEEF16161706E807F907C0F01216BA
:100180001306E407F50798F0621B730B840B950BBD
:1001900039F40A2661F0232B242B252B21F4089512
:1001A0000A2609F4A140A6958FEF811D811D0895AF
:0401B000F894FFCFF1
:00000001FF
