:100000000C9434000C9449000C9449000C94490061
:100010000C9449000C9449000C9449000C9449003C
:100020000C9449000C9449000C9449000C9449002C
:100030000C9449000C9449000C9449000C9449001C
:100040000C9449000C9449000C9449000C9449000C
:100050000C9449000C9449000C9449000C944900FC
:100060000C9449000C94490011241FBECFEFD8E036
:10007000DEBFCDBF15E0A0E0B1E0E2EEF2E002C0ED
:1000800005900D92A232B107D9F70E9453010C944A
:100090006F010C9400001092C5008093C40088E1A9
:1000A0008093C1008EE08093C20008959091C000BB
:1000B00095FFFCCF8093C60008950F931F93CF93B5
:1000C000DF93EC018E018881882359F00E9456004D
:1000D0002196F80180818A30A9F78DE00E945600B0
:1000E000F1CFDF91CF911F910F9108958091B900C9
:1000F000883409F449C0F0F48032E9F150F48031D9
:10010000A1F18831A9F1883009F050C080E091E078
:100110004FC0803399F130F4883209F047C089EC40
:1001200091E046C0883369F1803409F03FC088E629
:1001300092E03EC0883A71F148F4883541F1803749
:1001400091F1803599F588ED92E032C0883B29F134
:1001500028F4803B59F581E893E02AC0803C01F106
:10016000883C21F587E694E023C088E291E020C036
:1001700089E591E01DC08FE891E01AC083E092E02C
:1001800017C081E492E014C08EE992E011C08FE0C4
:1001900093E00EC08AE493E00BC08FED93E008C0BB
:1001A00081E294E005C08EEB94E002C080E095E02F
:1001B0000C945D00CF93DF9300D000D01F92CDB799
:1001C000DEB7E82FE295EF70F0E0E05FFA4F908144
:1001D00099838F70E82FF0E0E05FFA4F80818A8387
:1001E00080E28B838C831D82CE0101960E945D008C
:1001F0000F900F900F900F900F90DF91CF91089577
:1002000088E48093B80008951092BC0094EA90931B
:10021000BC009091BC0097FFFCCF8093BB0084E8AA
:100220008093BC008091BC0087FFFCCF08951092A2
:10023000BC0081E08093BA0084EC8093BC00809184
:10024000BC0087FFFCCF0E94760084EC8093BC004A
:100250008091BC0087FFFCCF8091B9000E94DA003A
:100260000E9476008091BB0090E00C945D00FFCF6F
:100270000E947600C4EC4A99FECF2FEF81EE94E005
:10028000215080409040E1F700C000004A9BF3CF2E
:10029000C093BC008091BC0087FFFCCF8091B90067
:1002A0000E94DA00E8CF88E090E00E944B0088E4EA
:1002B0008093B8000E9417014A990BC02FEF81EE7E
:1002C00094E0215080409040E1F700C000004A993E
:1002D000FFCF8091BC0087FFEFCF0E943801F894D8
:0202E000FFCF4E
:1002E2004120535441525420636F6E646974696FA4
:1002F2006E20686173206265656E207472616E7330
:100302006D69747465640A00412072657065617478
:10031200656420535441525420636F6E646974695A
:100322006F6E20686173206265656E207472616E03
:10033200736D69747465640A00534C412B572068CD
:100342006173206265656E207472616E736D69748B
:1003520074656420616E642041434B2068617320A0
:100362006265656E2072656365697665640A00532D
:100372004C412B5720686173206265656E20747250
:10038200616E736D697474656420616E64204E4F92
:10039200542041434B20686173206265656E207270
:1003A200656365697665640A0044617461206279F7
:1003B200746520686173206265656E207472616E77
:1003C200736D697474656420616E642041434B20CF
:1003D200686173206265656E207265636569766522
:1003E200640A0044617461206279746520686173F3
:1003F200206265656E207472616E736D69747465D6
:100402006420616E64204E4F542041434B2068614A
:1004120073206265656E2072656365697665640A3C
:10042200004172626974726174696F6E206C6F73DD
:100432007420696E20534C41206F72206461746194
:100442002062797465730A00534C412B5220686113
:1004520073206265656E207472616E736D69747467
:10046200656420616E642041434B206861732062A1
:1004720065656E2072656365697665640A00534C32
:10048200412B5220686173206265656E207472612F
:100492006E736D697474656420616E64204E4F548E
:1004A2002041434B20686173206265656E2072654E
:1004B2006365697665640A004461746120627974D7
:1004C2006520686173206265656E20726563656987
:1004D20076656420616E642041434B20686173201D
:1004E2006265656E2072657475726E65640A004499
:1004F2006174612062797465206861732062656548
:100502006E20726563656976656420616E64204E53
:100512004F542041434B20686173206265656E2011
:1005220072657475726E65640A004F776E20534C63
:10053200412B5220686173206265656E207265638B
:10054200656976656420616E642041434B20686171
:1005520073206265656E2072657475726E65640AD9
:10056200004172626974726174696F6E206C6F739C
:100572007420696E20534C412B522F5720617320F7
:100582004D61737465722C206F776E20534C412B32
:100592005220686173206265656E207265636569C9
:1005A20076656420616E642041434B20686173204C
:1005B2006265656E2072657475726E65640A0044C8
:1005C200617461206279746520696E2054574452C7
:1005D20020686173206265656E207472616E736D4E
:1005E200697474656420616E642041434B206861C4
:1005F20073206265656E2072656365697665640A5B
:100602000044617461206279746520696E205457D8
:10061200445220686173206265656E207472616E57
:10062200736D697474656420616E64204E4F54204A
:1006320041434B20686173206265656E2072656379
:1006420065697665640A004C617374206461746143
:10065200206279746520696E205457445220686183
:1006620073206265656E207472616E736D69747455
:100672006564202854574541203D20E2809C30E2A9
:10068200809D29616E642041434B20686173206222
:1006920065656E2072656365697665640A00476503
:1006A2006E6572616C2063616C6C2061646472655A
:1006B200737320686173206265656E20726563657D
:1006C2006976656420616E642041434B20686173E2
:1006D200206265656E2072657475726E65640A00CB
:1006E200556E6B6E6F776E207374617475730A004A
:1006F2003031323334353637383941424344454656
:020702000000F5
:00000001FF
