:100000000C9434000C9449000C9449000C94490061
:100010000C9449000C9449000C9449000C9449003C
:100020000C9449000C9449000C9449000C9449002C
:100030000C9449000C9449000C9449000C9449001C
:100040000C9449000C9449000C9449000C9449000C
:100050000C9449000C9449000C9449000C944900FC
:100060000C9449000C94490011241FBECFEFD8E036
:10007000DEBFCDBF11E0A0E0B1E0EEE6F2E002C0ED
:1000800005900D92A430B107D9F70E94CC000C94D2
:1000900035010C940000CF93DF9300D000D0CDB792
:1000A000DEB7409100015091010160910201709111
:1000B000030149835A836B837C8343E050E061E012
:1000C00070E0082E000C990BE1E0F0E0EC0FFD1F52
:1000D000E40FF51F2081FB0102C0EE0FFF1F2A95E0
:1000E000E2F79F01FC01042E02C0F595E7950A9402
:1000F000E2F735B1E0FF0CC0232B25B9415051097F
:1001000018F70F900F900F900F90DF91CF910895F7
:1001100020952323F2CFCF93DF93D0E0C0E060E0BF
:10012000CE010E9423012196C430D105C1F76DE7AD
:1001300085E090E00E94230160E084E090E0DF91A0
:10014000CF910C94230188E08093C4001092C500E5
:10015000E1ECF0E080818861808386E08093C200DA
:1001600008959091C00095FFFCCF8093C60008953C
:10017000CF93DF93EC018991811103C0DF91CF917F
:1001800008950E94B100FE01319780818A3099F76D
:100190008DE00E94B100EFCF209A219A229A249AF2
:1001A0002298249885E090E00E941B018D37C9F1C8
:1001B0000E948B00C0E0D0E08C2F0E944B004A9937
:1001C00014C02FEF81EE94E0215080409040E1F781
:1001D00000C000004A9B09C0CF5F8C2F0E944B00DB
:1001E0006C2F8D2F90E00E9423014C99E8CF2FEFC8
:1001F00081EE94E0215080409040E1F700C0000083
:100200004C9BDDCFDF5FD43008F0D0E08D2F90E045
:100210000E941B01C82F6D2F84E090E00E942301F3
:10022000CBCF84E090E00E941B01D82F90E00E9489
:100230001B01C82FC1CFF999FECF92BD81BDF89A9D
:10024000992780B50895262FF999FECF92BD81BDDB
:10025000F89A019700B4021639F01FBA20BD0FB604
:0E026000F894FA9AF99A0FBE0895F894FFCF19
:04026E000001020485
:00000001FF
