:100000000C9434000C9449000C9449000C94490061
:100010000C9449000C9449000C9449000C9449003C
:100020000C9449000C9449000C9449000C9449002C
:100030000C9449000C9449000C9449000C9449001C
:100040000C9449000C9449000C9449000C9449000C
:100050000C9449000C9449000C9449000C944900FC
:100060000C9449000C94490011241FBECFEFD8E036
:10007000DEBFCDBF11E0A0E0B1E0E4E7F2E002C0F6
:1000800005900D92A430B107D9F70E94CC000C94D2
:1000900038010C940000CF93DF9300D000D0CDB78F
:1000A000DEB7409100015091010160910201709111
:1000B000030149835A836B837C8343E050E061E012
:1000C00070E0082E000C990BE1E0F0E0EC0FFD1F52
:1000D000E40FF51F2081FB0102C0EE0FFF1F2A95E0
:1000E000E2F79F01FC01042E02C0F595E7950A9402
:1000F000E2F735B1E0FF0CC0232B25B9415051097F
:1001000018F70F900F900F900F90DF91CF910895F7
:1001100020952323F2CFCF93DF93D0E0C0E060E0BF
:10012000CE010E9426012196C430D105C1F76CE7AB
:1001300085E090E00E94260160E084E090E0DF919D
:10014000CF910C94260188E08093C4001092C500E2
:10015000E1ECF0E080818861808386E08093C200DA
:1001600008959091C00095FFFCCF8093C60008953C
:10017000CF93DF93EC018991811103C0DF91CF917F
:1001800008950E94B100FE01319780818A3099F76D
:100190008DE00E94B100EFCF209A219A229A249AF2
:1001A0002298249885E090E00E941E018C37D9F1B6
:1001B0000E948B00C0E010E000E08C2F0E944B00FA
:1001C0004A9913C02FEF81EE94E021508040904077
:1001D000E1F700C000004A9B08C0CF5F8C2F0E944F
:1001E0004B006C2FC8010E9426014C99E9CF2FEFDC
:1001F00081EE94E0215080409040E1F700C0000083
:100200004C9BDECF0F5F1F4F0430110510F010E044
:1002100000E0C8010E941E01C82F602F84E090E01A
:100220000E942601CACF84E090E00E941E01082FA0
:1002300010E0C8010E941E01C82FBFCFF999FECF60
:1002400092BD81BDF89A992780B50895262FF99916
:10025000FECF92BD81BDF89A019700B4021639F025
:100260001FBA20BD0FB6F894FA9AF99A0FBE0895F6
:04027000F894FFCF30
:04027400000102047F
:00000001FF
