:100000000C9434000C9449000C9449000C94490061
:100010000C9449000C9449000C9449000C9449003C
:100020000C9449000C9449000C9449000C947C00F9
:100030000C9449000C9449000C9449000C9449001C
:100040000C9449000C9449000C9449000C9449000C
:100050000C9449000C9449000C9449000C944900FC
:100060000C9449000C94490011241FBECFEFD8E036
:10007000DEBFCDBF11E0A0E0B1E0EEE6F1E002C0EE
:1000800005900D92AE30B107D9F70E94AD000C94E7
:10009000B5000C9400009091C00095FFFCCF8093B8
:1000A000C60008950F931F93CF93DF93EC018E0149
:1000B0008881882359F00E944B002196F8018081A5
:1000C0008A30A9F78DE00E944B00F1CFDF91CF91EC
:1000D0001F910F910895E1E8F0E080818D608083A9
:1000E000EFE6F0E080818260808380E19AE7909380
:1000F00089008093880008951F920F920FB60F9287
:1001000011242F933F934F935F936F937F938F931C
:100110009F93AF93BF93EF93FF9380E091E00E9492
:100120005200FF91EF91BF91AF919F918F917F917D
:100130006F915F914F913F912F910F900FBE0F9054
:100140001F9018951092C5008093C40088E1809399
:10015000C1008EE08093C2000895789488E090E01A
:0E0160000E94A2000E946B00FFCFF894FFCF18
:0E016E0048656C6C6F20576F726C64210A003C
:00000001FF
