:100000000C9434000C943E000C943E000C943E0082
:100010000C943E000C943E000C943E000C943E0068
:100020000C943E000C943E000C943E000C943E0058
:100030000C943E000C943E000C943E000C943E0048
:100040000C943E000C943E000C943E000C943E0038
:100050000C943E000C943E000C943E000C943E0028
:100060000C943E000C943E0011241FBECFEFD8E04C
:10007000DEBFCDBF0E9418020C9402040C94000055
:1000800029B130E0A90102C0559547958A95E2F75C
:10009000CA0181709927089594B121E030E001C030
:1000A000220F8A95EAF7922B94B90895CF93DF93A4
:1000B00000D000D0CDB7DEB7E0E8F0E08081826804
:1000C0008083E1E8F0E080818D618083E6E8F0E004
:1000D00088E09DE391838083808191819C0150E041
:1000E00040E029833A834B835C83CA01B9010E94B3
:1000F000DE022DEC3CEC4CEC5DE369837A838B8370
:100100009C8369817A818B819C810E94950369839C
:100110007A838B839C8369817A818B819C810E9405
:10012000AF02462F572F50938900409388000F90BD
:100130000F900F900F90DF91CF910895CF92DF92A3
:10014000EF92FF920F931F93CF93DF9300D000D0D5
:1001500000D0CDB7DEB7C0908800D09089008091E4
:1001600086009091870000918600109187009C0185
:1001700050E040E029833A834B835C83CA01B90194
:100180000E94DE022DEC3CEC4CEC5DE369837A834B
:100190008B839C8369817A818B819C810E949503EA
:1001A0007B018E839D83C601B0E0A0E089839A83A2
:1001B000AB83BC83B601CD010E94DE029B01AC0182
:1001C000E982FA829E819B83AD81AC8369817A81C9
:1001D0008B819C810E943E027B018E839D839801CE
:1001E00050E040E029833A834B835C83CA01B80125
:1001F0000E94DE029B01AC01E982FA828E818B8330
:100200009D819C8369817A818B819C810E94AA0255
:1002100087FF4DC08091860090918700E090880014
:10022000F09089009C0150E040E029833A834B83A1
:100230005C83CA01B9010E94DE022DEC3CEC4CEC5F
:100240005DE369837A838B839C8369817A818B8167
:100250009C810E9495038B018E839D83C701B0E032
:10026000A0E089839A83AB83BC83B701CD010E9450
:10027000DE029B01AC0109831A839E819B83AD81C1
:10028000AC8369817A818B819C810E943E02698363
:100290007A838B839C8369817A818B819C810E9484
:1002A000AF02462F572F509389004093880026961F
:1002B0000FB6F894DEBF0FBECDBFDF91CF911F9177
:1002C0000F91FF90EF90DF90CF900895EF92FF9203
:1002D0000F931F93CF93DF9300D000D000D0CDB702
:1002E000DEB78091880090918900E0908600F090C0
:1002F00087009C0150E040E029833A834B835C8374
:10030000CA01B9010E94DE028B018E839D83C70161
:10031000B0E0A0E089839A83AB83BC83B701CD01B1
:100320000E94DE022DEC3CEC4CEC5DE369837A83A9
:100330008B839C8369817A818B819C810E94950348
:100340009B01AC0109831A839E819B83AD81AC83A1
:1003500069817A818B819C810E943D0220E030E09E
:10036000A90169837A838B839C8369817A818B81DC
:100370009C810E94900318160CF04DC0E0908600FE
:10038000F090870080918800909189009C0150E056
:1003900040E029833A834B835C83CA01B9010E9400
:1003A000DE028B018E839D83C701B0E0A0E08983CC
:1003B0009A83AB83BC83B701CD010E94DE022DEC92
:1003C0003CEC4CEC5DE369837A838B839C8369818D
:1003D0007A818B819C810E9495039B01AC010983EA
:1003E0001A839E819B83AD81AC8369817A818B81E5
:1003F0009C810E943D0269837A838B839C836981FF
:100400007A818B819C810E94AF02462F572F509397
:1004100089004093880026960FB6F894DEBF0FBE81
:10042000CDBFDF91CF911F910F91FF90EF90089575
:1004300081E00E944C00229824980E9456004A991C
:100440000CC02FEF81EE94E0215080409040E1F706
:1004500000C000004A990E949E004C99F0CF2FEFF7
:1004600081EE94E0215080409040E1F700C0000010
:100470004C9BE5CF0E946601E2CF5058BB27AA27CC
:100480000E9455020C9456030E94480338F00E94C3
:100490004F0320F039F49F3F19F426F40C944503E0
:1004A0000EF4E095E7FB0C943F03E92F0E946703ED
:1004B00058F3BA17620773078407950720F079F499
:1004C000A6F50C9489030EF4E0950B2EBA2FA02DFF
:1004D0000B01B90190010C01CA01A0011124FF27F1
:1004E000591B99F0593F50F4503E68F11A16F040EC
:1004F000A22F232F342F4427585FF3CF46953795EB
:100500002795A795F0405395C9F77EF41F16BA0BAF
:10051000620B730B840BBAF09150A1F0FF0FBB1F5D
:10052000661F771F881FC2F70EC0BA0F621F731FA6
:10053000841F48F4879577956795B795F7959E3F03
:1005400008F0B0CF9395880F08F09927EE0F979594
:10055000879508950E941B0308F481E008950E9486
:100560006F0388F09F5798F0B92F9927B751B0F0D3
:10057000E1F0660F771F881F991F1AF0BA95C9F727
:1005800014C0B13091F00E948903B1E008950C9439
:100590008903672F782F8827B85F39F0B93FCCF3EC
:1005A000869577956795B395D9F73EF490958095A4
:1005B000709561957F4F8F4F9F4F0895E89409C0C4
:1005C00097FB3EF490958095709561957F4F8F4F86
:1005D0009F4F9923A9F0F92F96E9BB279395F6959C
:1005E000879577956795B795F111F8CFFAF4BB0F1A
:1005F00011F460FF1BC06F5F7F4F8F4F9F4F16C07E
:10060000882311F096E911C0772321F09EE8872F07
:10061000762F05C0662371F096E8862F70E060E0C3
:100620002AF09A95660F771F881FDAF7880F96953C
:10063000879597F90895990F0008550FAA0BE0E8E0
:10064000FEEF16161706E807F907C0F01216130694
:10065000E407F50798F0621B730B840B950B39F4D4
:100660000A2661F0232B242B252B21F408950A263A
:1006700009F4A140A6958FEF811D811D089597F97A
:100680009F6780E870E060E008959FEF80EC089538
:1006900000240A9416161706180609060895002461
:1006A0000A9412161306140605060895092E0394DB
:1006B000000C11F4882352F0BB0F40F4BF2B11F44F
:1006C00060FF04C06F5F7F4F8F4F9F4F089557FDAE
:1006D0009058440F551F59F05F3F71F04795880FB0
:1006E00097FB991F61F09F3F79F087950895121647
:1006F00013061406551FF2CF4695F1DF08C01616F3
:1007000017061806991FF1CF8695710561050894A3
:100710000895E894BB2766277727CB0197F90895BA
:100720000E941B0308F48FEF08950E94A8030C9405
:1007300056030E94480338F00E944F0320F095238F
:1007400011F00C943F030C94450311240C948A037C
:100750000E94670370F3959FC1F3950F50E0551FFA
:10076000629FF001729FBB27F00DB11D639FAA2706
:10077000F00DB11DAA1F649F6627B00DA11D661F55
:10078000829F2227B00DA11D621F739FB00DA11D76
:10079000621F839FA00D611D221F749F3327A00D30
:1007A000611D231F849F600D211D822F762F6A2FCC
:1007B00011249F5750409AF0F1F088234AF0EE0F31
:1007C000FF1FBB1F661F771F881F91505040A9F75E
:1007D0009E3F510580F00C943F030C948A035F3FC9
:1007E000E4F3983ED4F3869577956795B795F7959A
:1007F000E7959F5FC1F7FE2B880F911D9695879512
:0808000097F90895F894FFCF69
:00000001FF
