:100000000C9434000C943E000C943E000C943E0082
:100010000C943E000C943E000C943E000C943E0068
:100020000C943E000C943E000C943E000C943E0058
:100030000C943E000C943E000C943E000C943E0048
:100040000C943E000C943E000C943E000C943E0038
:100050000C943E000C943E000C943E000C943E0028
:100060000C943E000C943E0011241FBECFEFD8E04C
:10007000DEBFCDBF0E9439010C9430030C94000008
:1000800029B130E0A90102C0559547958A95E2F75C
:10009000CA0181709927089594B121E030E001C030
:1000A000220F8A95EAF7292B24B90895E0E8F0E0B9
:1000B000808182688083E1E8F0E080818D618083C7
:1000C000E6E8F0E088E09DE39183808360817181C0
:1000D00080E090E00E940C022DEC3CEC4CEC5DE3E7
:1000E0000E94C3020E94DD01709389006093880022
:1000F0000895CF92DF92EF92FF920F931F93CF93C9
:10010000DF930091880010918900609186007091C2
:100110008700C0918600D091870080E090E00E9427
:100120000C022DEC3CEC4CEC5DE30E94C3026B0135
:100130007C01B80180E090E00E940C029B01AC01C0
:10014000C701B6010E946C016B017C01BE0180E019
:1001500090E00E940C029B01AC01C701B6010E9415
:10016000D80187FF25C06091860070918700C091FB
:100170008800D091890080E090E00E940C022DEC74
:100180003CEC4CEC5DE30E94C3026B017C01BE01C0
:1001900080E090E00E940C029B01AC01C701B60117
:1001A0000E946C010E94DD017093890060938800B9
:1001B000DF91CF911F910F91FF90EF90DF90CF9043
:1001C0000895CF92DF92EF92FF92CF93DF936091E9
:1001D000880070918900C0918600D091870080E0EE
:1001E00090E00E940C026B017C01BE0180E090E077
:1001F0000E940C022DEC3CEC4CEC5DE30E94C3022F
:100200009B01AC01C701B6010E946B0120E030E008
:10021000A9010E94BE0218162CF5C0918600D0914B
:100220008700609188007091890080E090E00E94D2
:100230000C026B017C01BE0180E090E00E940C0288
:100240002DEC3CEC4CEC5DE30E94C3029B01AC0145
:10025000C701B6010E946B010E94DD017093890005
:1002600060938800DF91CF91FF90EF90DF90CF9067
:10027000089581E00E944C00229824980E94560024
:1002800082E00E944000892B81F42FEF81EE94E000
:10029000215080409040E1F700C0000082E00E94C1
:1002A0004000019711F40E94790084E00E94400010
:1002B000892B31F72FEF81EE94E021508040904060
:1002C000E1F700C0000084E00E9440000197C1F601
:1002D0000E94E100D5CF5058BB27AA270E94830176
:1002E0000C9484020E94760238F00E947D0220F075
:1002F00039F49F3F19F426F40C9473020EF4E09540
:10030000E7FB0C946D02E92F0E94950258F3BA178F
:10031000620773078407950720F079F4A6F50C941B
:10032000B7020EF4E0950B2EBA2FA02D0B01B901E8
:1003300090010C01CA01A0011124FF27591B99F05B
:10034000593F50F4503E68F11A16F040A22F232F67
:10035000342F4427585FF3CF469537952795A795B7
:10036000F0405395C9F77EF41F16BA0B620B730B5E
:10037000840BBAF09150A1F0FF0FBB1F661F771FCF
:10038000881FC2F70EC0BA0F621F731F841F48F484
:10039000879577956795B795F7959E3F08F0B0CF0D
:1003A0009395880F08F09927EE0F979587950895F4
:1003B0000E94490208F481E008950E949D0288F09D
:1003C0009F5798F0B92F9927B751B0F0E1F0660F19
:1003D000771F881F991F1AF0BA95C9F714C0B1305A
:1003E00091F00E94B702B1E008950C94B702672F14
:1003F000782F8827B85F39F0B93FCCF38695779589
:100400006795B395D9F73EF4909580957095619571
:100410007F4F8F4F9F4F0895E89409C097FB3EF49C
:1004200090958095709561957F4F8F4F9F4F992341
:10043000A9F0F92F96E9BB279395F69587957795BF
:100440006795B795F111F8CFFAF4BB0F11F460FF7F
:100450001BC06F5F7F4F8F4F9F4F16C0882311F0D7
:1004600096E911C0772321F09EE8872F762F05C0EB
:10047000662371F096E8862F70E060E02AF09A9586
:10048000660F771F881FDAF7880F9695879597F97B
:100490000895990F0008550FAA0BE0E8FEEF161615
:1004A0001706E807F907C0F012161306E407F50768
:1004B00098F0621B730B840B950B39F40A2661F0DC
:1004C000232B242B252B21F408950A2609F4A1407F
:1004D000A6958FEF811D811D089597F99F6780E88C
:1004E00070E060E008959FEF80EC089500240A9486
:1004F0001616170618060906089500240A941216FF
:100500001306140605060895092E0394000C11F431
:10051000882352F0BB0F40F4BF2B11F460FF04C0DE
:100520006F5F7F4F8F4F9F4F089557FD9058440F37
:10053000551F59F05F3F71F04795880F97FB991F42
:1005400061F09F3F79F087950895121613061406FF
:10055000551FF2CF4695F1DF08C01616170618068C
:10056000991FF1CF86957105610508940895E89467
:10057000BB2766277727CB0197F908950E94490288
:1005800008F48FEF08950E94D6020C9484020E9412
:10059000760238F00E947D0220F0952311F00C9431
:1005A0006D020C94730211240C94B8020E949502FF
:1005B00070F3959FC1F3950F50E0551F629FF001B6
:1005C000729FBB27F00DB11D639FAA27F00DB11DCF
:1005D000AA1F649F6627B00DA11D661F829F222758
:1005E000B00DA11D621F739FB00DA11D621F839FDF
:1005F000A00D611D221F749F3327A00D611D231FB5
:10060000849F600D211D822F762F6A2F11249F5702
:1006100050409AF0F1F088234AF0EE0FFF1FBB1F05
:10062000661F771F881F91505040A9F79E3F5105C4
:1006300080F00C946D020C94B8025F3FE4F3983E96
:10064000D4F3869577956795B795F795E7959F5F6E
:10065000C1F7FE2B880F911D9695879597F9089500
:04066000F894FFCF3C
:00000001FF
