:100000000C9434000C9449000C9449000C94490061
:100010000C9449000C9449000C9449000C9449003C
:100020000C9449000C9449000C9449000C9449002C
:100030000C9449000C9449000C9449000C9449001C
:100040000C9449000C9449000C9449000C9449000C
:100050000C9449000C9449000C9449000C944900FC
:100060000C9449000C94490011241FBECFEFD8E036
:10007000DEBFCDBF13E0A0E0B1E0EEEAF7E002C0E2
:1000800005900D92AC36B107D9F70E9498010C94F7
:10009000D5030C9400009091C00095FFFCCF809395
:1000A000C60008950F931F93CF93DF93EC018E0149
:1000B0008881882359F00E944B002196F8018081A5
:1000C0008A30A9F78DE00E944B00F1CFDF91CF91EC
:1000D0001F910F910895CF92DF92EF92FF926B01E3
:1000E0007C0197FF0BC0F094E094D094C094C11CA5
:1000F000D11CE11CF11C8DE20E944B008AE0C81665
:10010000D104E104F10464F0C701B6012AE030E053
:1001100040E050E00E94F601CA01B9010E946B0064
:10012000C701B6012AE030E040E050E00E94F6014D
:1001300080E3860FFF90EF90DF90CF900C944B0000
:100140008091B900803361F188F4883119F138F475
:100150008830E9F0803181F588E291E02FC080326B
:10016000E1F0883249F589EC91E028C08834F1F05B
:1001700038F48833C1F08034F9F488E692E01EC088
:100180008035B9F08835C1F48FE093E017C080E086
:1001900091E014C089E591E011C08FE891E00EC0B4
:1001A00083E092E00BC081E492E008C08EE992E027
:1001B00005C088ED92E002C08AE493E00C945200FE
:1001C0001092C5008093C40088E18093C1008EE046
:1001D0008093C2000895CF93DF9300D000D01F9288
:1001E000CDB7DEB7E82FE295EF70F0E0E65AFC4FAE
:1001F000908199838F70E82FF0E0E65AFC4F808160
:100200008A8380E28B838C831D82CE0101960E94BB
:1002100052000F900F900F900F900F90DF91CF91A1
:10022000089588E48093B80008951092BC0094EA81
:100230009093BC009091BC0097FFFCCF8093BB00D3
:1002400084E88093BC008091BC0087FFFCCF0895B8
:1002500084EC8093BC008091BC0087FFFCCF809130
:10026000BB0008958093BB0084E88093BC0080911C
:10027000BC0087FFFCCF089584E98093BC000895FB
:10028000CF92DF92EF92FF92CF93DF936B017C01CD
:10029000CFE1D0E0D701C6010C2E04C0B595A795DB
:1002A000979587950A94D2F7BC01CD0161707727A5
:1002B000882799270E946B00219760F788E493E0D4
:1002C000DF91CF91FF90EF90DF90CF900C94520090
:1002D000FC0123812F706481862F660F990BAA0B76
:1002E000BB0BBA2FA92F982F8827AA27BB27A22B91
:1002F0002581BC01CD01622B0E94DC0220E030E0B0
:1003000040E855E30E94680320E030E048E453E40D
:100310000E94680320E030E048E452E40E94370283
:100320000E94A402072E000C880B990B0C946B0002
:10033000CF93DF93CDB7DEB727970FB6F894DEBF24
:100340000FBECDBF8E010F5F1F4F87E0F8011192E6
:100350008A95E9F788E090E00E94E00088E48093C5
:10036000B80084E9D82E5E01F8E0AF0EB11C80E73A
:100370000E9415012FEF83EF91E0215080409040C3
:10038000E1F700C000008CEA0E94320183E30E9482
:10039000320180E00E943201D092BC00EFEFF7EE14
:1003A00023E0E150F0402040E1F700C0000081E789
:1003B0000E94150178010E942801F70181937F01B5
:1003C000EA15FB05C1F7C8010E94680188E493E0C3
:1003D0000E945200D092BC00FFEF2BE782E9F1505F
:1003E00020408040E1F700C00000C1CF052E97FB00
:1003F0001EF400940E940D0257FD07D00E941502C2
:1004000007FC03D04EF40C940D02509540953095A6
:1004100021953F4F4F4F5F4F089590958095709570
:1004200061957F4F8F4F9F4F0895A1E21A2EAA1B0F
:10043000BB1BFD010DC0AA1FBB1FEE1FFF1FA21794
:10044000B307E407F50720F0A21BB30BE40BF50B91
:10045000661F771F881F991F1A9469F7609570951A
:10046000809590959B01AC01BD01CF010895505836
:10047000BB27AA270E944F020C942E030E94200340
:1004800038F00E94270320F039F49F3F19F426F436
:100490000C941D030EF4E095E7FB0C941703E92F71
:1004A0000E943F0358F3BA17620773078407950742
:1004B00020F079F4A6F50C9461030EF4E0950B2E70
:1004C000BA2FA02D0B01B90190010C01CA01A001A6
:1004D0001124FF27591B99F0593F50F4503E68F101
:1004E0001A16F040A22F232F342F4427585FF3CF42
:1004F000469537952795A795F0405395C9F77EF413
:100500001F16BA0B620B730B840BBAF09150A1F05B
:10051000FF0FBB1F661F771F881FC2F70EC0BA0FE1
:10052000621F731F841F48F4879577956795B79569
:10053000F7959E3F08F0B0CF9395880F08F0992764
:10054000EE0F9795879508950E94AB026894B111BC
:100550000C94620308950E94470388F09F5798F017
:10056000B92F9927B751B0F0E1F0660F771F881FB8
:10057000991F1AF0BA95C9F714C0B13091F00E94D2
:100580006103B1E008950C946103672F782F8827E9
:10059000B85F39F0B93FCCF3869577956795B395F9
:1005A000D9F73EF490958095709561957F4F8F4F68
:1005B0009F4F0895E89409C097FB3EF4909580956D
:1005C000709561957F4F8F4F9F4F9923A9F0F92F19
:1005D00096E9BB279395F695879577956795B79597
:1005E000F111F8CFFAF4BB0F11F460FF1BC06F5F7D
:1005F0007F4F8F4F9F4F16C0882311F096E911C08F
:10060000772321F09EE8872F762F05C0662371F0AF
:1006100096E8862F70E060E02AF09A95660F771FC3
:10062000881FDAF7880F9695879597F9089597F9B7
:100630009F6780E870E060E008959FEF80EC089588
:1006400000240A94161617061806090608950024B1
:100650000A9412161306140605060895092E03942B
:10066000000C11F4882352F0BB0F40F4BF2B11F49F
:1006700060FF04C06F5F7F4F8F4F9F4F089557FDFE
:100680009058440F551F59F05F3F71F04795880F00
:1006900097FB991F61F09F3F79F087950895121697
:1006A00013061406551FF2CF4695F1DF08C0161643
:1006B00017061806991FF1CF8695710561050894F4
:1006C0000895E894BB2766277727CB0197F908950B
:1006D0000E947B030C942E030E94200338F00E949A
:1006E000270320F0952311F00C9417030C941D039D
:1006F00011240C9462030E943F0370F3959FC1F391
:10070000950F50E0551F629FF001729FBB27F00DBF
:10071000B11D639FAA27F00DB11DAA1F649F662714
:10072000B00DA11D661F829F2227B00DA11D621F63
:10073000739FB00DA11D621F839FA00D611D221F1D
:10074000749F3327A00D611D231F849F600D211D01
:10075000822F762F6A2F11249F5750409AF0F1F084
:1007600088234AF0EE0FFF1FBB1F661F771F881FED
:1007700091505040A9F79E3F510580F00C9417030B
:100780000C9462035F3FE4F3983ED4F3869577952B
:100790006795B795F795E7959F5FC1F7FE2B880F93
:0E07A000911D9695879597F90895F894FFCFCF
:1007AE004120535441525420636F6E646974696FD3
:1007BE006E20686173206265656E207472616E735F
:1007CE006D69747465640A004120726570656174A8
:1007DE00656420535441525420636F6E646974698A
:1007EE006F6E20686173206265656E207472616E33
:1007FE00736D69747465640A00534C412B572068FD
:10080E006173206265656E207472616E736D6974BA
:10081E0074656420616E642041434B2068617320CF
:10082E006265656E2072656365697665640A00535C
:10083E004C412B5720686173206265656E2074727F
:10084E00616E736D697474656420616E64204E4FC1
:10085E00542041434B20686173206265656E20729F
:10086E00656365697665640A004461746120627926
:10087E00746520686173206265656E207472616EA6
:10088E00736D697474656420616E642041434B20FE
:10089E00686173206265656E207265636569766551
:1008AE00640A004461746120627974652068617322
:1008BE00206265656E207472616E736D6974746505
:1008CE006420616E64204E4F542041434B2068617A
:1008DE0073206265656E2072656365697665640A6C
:1008EE00004172626974726174696F6E206C6F730D
:1008FE007420696E20534C41206F722064617461C4
:10090E002062797465730A00534C412B5220686142
:10091E0073206265656E207472616E736D69747496
:10092E00656420616E642041434B206861732062D0
:10093E0065656E2072656365697665640A00534C61
:10094E00412B5220686173206265656E207472615E
:10095E006E736D697474656420616E64204E4F54BD
:10096E002041434B20686173206265656E2072657D
:10097E006365697665640A00446174612062797406
:10098E006520686173206265656E207265636569B6
:10099E0076656420616E642041434B20686173204C
:1009AE006265656E2072657475726E65640A0044C8
:1009BE006174612062797465206861732062656577
:1009CE006E20726563656976656420616E64204E83
:1009DE004F542041434B20686173206265656E2041
:1009EE0072657475726E65640A00556E6B6E6F7704
:1009FE006E207374617475730A003031323334357E
:0C0A0E0036373839414243444546000069
:00000001FF
