:100000000C94B1000C94C6000C94C6000C94C6006D
:100010000C94C6000C94C6000C94C6000C94C60048
:100020000C94C6000C94C6000C94C6000C94C60038
:100030000C94C6000C94C6000C94C6000C94C60028
:100040000C94C6000C94C6000C94C6000C94C60018
:100050000C94C6000C94C6000C94C6000C94C60008
:100060000C94C6000C94C60000407A10F35A00A00D
:10007000724E18090010A5D4E80000E87648170071
:1000800000E40B54020000CA9A3B000000E1F505B1
:10009000000080969800000040420F000000A086FB
:1000A00001000000102700000000E803000000002D
:1000B0006400000000000A000000000001000000D1
:1000C00000002C76D888DC674F0823DFC1DFAE59EB
:1000D000E1B1B796E5E3E453C63AE651997696E87E
:1000E000E6C28426EB898C9B62ED407C6FFCEFBC02
:1000F0009C9F40F2BAA56FA5F490055A2AF75C932D
:100100006B6CF9676DC11BFCE0E40D47FEF520E662
:10011000B500D0ED902E0300943577050080841E45
:10012000080000204E0A000000C80C333333330FA0
:10013000986E12831141EF8D2114893BE65516CF3D
:10014000FEE6DB18D1844B381BF77C1D901DA4BB49
:10015000E424203284725E228100C9F124ECA1E5FE
:100160003D2711241FBECFEFD8E0DEBFCDBF13E087
:10017000A0E0B1E0ECE0F0E102C005900D92AC38F7
:10018000B107D9F70E940F030C9404080C940000E7
:10019000CF93DF9300D000D0CDB7DEB7FC018381D1
:1001A000082E000C990BAA0BBB0BDC0199278827A2
:1001B00088279927AF70BB274481042E000C550B6C
:1001C000660B770B762F652F542F442766277727EA
:1001D000842B952BA62BB72B2581AC01BD01422B7F
:1001E00049835A836B837C83CB01BA010E946704E5
:1001F00020E030E040E855E369837A838B839C8379
:1002000069817A818B819C810E94F30420E030E037
:1002100048E453E469837A838B839C8369817A8180
:100220008B819C810E94F30420E030E048E452E49A
:1002300069837A838B839C8369817A818B819C819A
:100240000E94860369837A838B839C8369817A8188
:100250008B819C810F900F900F900F90DF91CF9129
:100260000895CF93DF9300D000D0CDB7DEB7FC0167
:100270008181082E000C990BAA0BBB0B2CE0880F78
:10028000991FAA1FBB1F2A95D1F78827907FAF70AF
:10029000BB274281042E000C550B660B770B762F83
:1002A000652F542F442766277727842B952BA62B61
:1002B000B72B23812F70AC01BD01422B49835A8398
:1002C0006B837C83CB01BA010E94670420E030E09D
:1002D00040E855E369837A838B839C8369817A81C3
:1002E0008B819C810E94F30420E030E048EC52E4D2
:1002F00069837A838B839C8369817A818B819C81DA
:100300000E94F30469837A838B839C8369817A8159
:100310008B819C810F900F900F900F90DF91CF9168
:1003200008950E94780280E70E9486022FEF83EFF3
:1003300091E0215080409040E1F700C000008CEA3D
:100340000E94860283E30E94860280E00E94860269
:100350000E9482022FEF87EE93E021508040904070
:10036000E1F700C000000E94780281E70C94860249
:10037000CF93DF9300D000D0CDB7DEB789839A83C7
:10038000E981FA81248135814681578160817181BB
:10039000828193810E948703E981FA8120853185DA
:1003A0004285538569837A838B839C8369817A81B3
:1003B0008B819C810E94870320E030E040E450E480
:1003C00069837A838B839C8369817A818B819C8109
:1003D0000E94F30369837A838B839C8369817A818A
:1003E0008B819C810F900F900F900F90DF91CF9198
:1003F0000895CF92DF92EF92FF920F931F93CF93C6
:10040000DF93CDB7DEB72B970FB6F894DEBF0FBEE4
:10041000CDBF6B017C01922F842F8E010F5F1F4F88
:1004200020E042E0988739878A875B8768857985ED
:100430008A859B850E94600580E091E00E945E02B3
:10044000C8010E945E028EE091E00E945E0221E0FF
:1004500043E0C886D986EA86FB86688579858A85E1
:100460009B850E946005C8010E945E028EE191E0BA
:100470000E945E022B960FB6F894DEBF0FBECDBF72
:10048000DF91CF911F910F91FF90EF90DF90CF9070
:10049000089588E08093C4001092C500E1ECF0E07C
:1004A00080818861808386E08093C2000895909166
:1004B000C00095FFFCCF8093C6000895CF93DF93D3
:1004C000EC018991811103C0DF91CF9108950E94C1
:1004D0005702FE01319780818A3099F78DE00E94A2
:1004E0005702EFCF88E48093B8001092B9000895C6
:1004F0001092BC0084EA8093BC008091BC0087FF0E
:10050000FCCF089584E98093BC0008958093BB00DC
:1005100084EC8093BC008091BC0087FFFCCF0895E1
:1005200084EC8093BC008091BC0087FFFCCF0895D1
:100530001F93CF93DF93CDB7DEB761970FB6F894D3
:10054000DEBF0FBECDBF182F81E1E1E2F1E0DE0199
:10055000119601900D928A95E1F7E12FE295EF70E7
:1005600081E090E08C0F9D1F8E0F911DFC0180811A
:100570000E945702E12FEF7081E090E08C0F9D1FE9
:100580008E0F911DFC01808161960FB6F894DEBF3D
:100590000FBECDBFDF91CF911F910C945702809178
:1005A000B900803381F188F4883139F138F488302A
:1005B000E9F08031F9F08CE793E01AC0803201F164
:1005C0008832C9F78BEF91E013C0883411F138F409
:1005D0008833E1F0803479F78AE992E009C0803508
:1005E000D9F0883541F781E493E002C082E391E0DD
:1005F0000C945E028AE591E0FBCF8BE891E0F8CFA6
:1006000081EC91E0F5CF85E392E0F2CF83E792E0D1
:10061000EFCF80ED92E0ECCF8AE093E0E9CFCDB769
:10062000DEB7E1970FB6F894DEBF0FBECDBFCE01A7
:1006300001961C0185E1D1011D928A95E9F78CE0B4
:100640002E01B2E24B0E511CF201282F11922A9575
:10065000E9F73E0196E1690E711CD3011D928A955E
:10066000E9F70E9449020E9472028101520163016E
:100670000E9491014801F12CE12C0E94900280918E
:10068000BB00F40181934F01FFEFEF1AFF0A27E04F
:10069000E216F10491F70E948202C8010E94310122
:1006A000D5016D937D938D939D935D01C8010E944B
:1006B000C8006EA77FA788AB99ABF60161937193D1
:1006C000819391936F01FFEF23ED80E3F150204080
:1006D0008040E1F700C00000095F1F4F06151705B5
:1006E00039F6C3010E94B8017B018C01C2010E944E
:1006F000B8019701A8016EA77FA788AB99AB6EA53B
:100700007FA588A999A90E94F901AFCF5058BB27AE
:10071000AA270E949E030C94B9040E94AB0438F0EF
:100720000E94B20420F039F49F3F19F426F40C948F
:10073000A8040EF4E095E7FB0C94A204E92F0E94B4
:10074000CA0458F3BA17620773078407950720F0A5
:1007500079F4A6F50C94EC040EF4E0950B2EBA2F68
:10076000A02D0B01B90190010C01CA01A0011124B7
:10077000FF27591B99F0593F50F4503E68F11A1663
:10078000F040A22F232F342F4427585FF3CF4695F4
:1007900037952795A795F0405395C9F77EF41F1616
:1007A000BA0B620B730B840BBAF09150A1F0FF0FE0
:1007B000BB1F661F771F881FC2F70EC0BA0F621FCC
:1007C000731F841F48F4879577956795B795F795BC
:1007D0009E3F08F0B0CF9395880F08F09927EE0F51
:1007E0009795879508950E9407040C94B9040E9478
:1007F000B20458F00E94AB0440F029F45F3F29F0A6
:100800000C94A20451110C94ED040C94A8040E94C1
:10081000CA0468F39923B1F3552391F3951B550B43
:10082000BB27AA2762177307840738F09F5F5F4FC3
:10083000220F331F441FAA1FA9F335D00E2E3AF002
:10084000E0E832D091505040E695001CCAF72BD01A
:10085000FE2F29D0660F771F881FBB1F261737076B
:100860004807AB07B0E809F0BB0B802DBF01FF279D
:1008700093585F4F3AF09E3F510578F00C94A204D4
:100880000C94ED045F3FE4F3983ED4F3869577959E
:100890006795B795F7959F5FC9F7880F911D969556
:1008A000879597F90895E1E0660F771F881FBB1FB2
:1008B000621773078407BA0720F0621B730B840B5F
:1008C000BA0BEE1F88F7E0950895E89409C097FBEE
:1008D0003EF490958095709561957F4F8F4F9F4F17
:1008E0009923A9F0F92F96E9BB279395F69587955B
:1008F00077956795B795F111F8CFFAF4BB0F11F41E
:1009000060FF1BC06F5F7F4F8F4F9F4F16C08823C4
:1009100011F096E911C0772321F09EE8872F762FFA
:1009200005C0662371F096E8862F70E060E02AF03B
:100930009A95660F771F881FDAF7880F9695879527
:1009400097F9089597F99F6780E870E060E008954F
:100950009FEF80EC089500240A94161617061806D7
:100960000906089500240A941216130614060506B3
:100970000895092E0394000C11F4882352F0BB0F44
:1009800040F4BF2B11F460FF04C06F5F7F4F8F4FA7
:100990009F4F089557FD9058440F551F59F05F3FE2
:1009A00071F04795880F97FB991F61F09F3F79F091
:1009B00087950895121613061406551FF2CF469513
:1009C000F1DF08C0161617061806991FF1CF869595
:1009D0007105610508940895E894BB276627772779
:1009E000CB0197F908950E9406050C94B9040E9462
:1009F000AB0438F00E94B20420F0952311F00C945F
:100A0000A2040C94A80411240C94ED040E94CA04BE
:100A100070F3959FC1F3950F50E0551F629FF00151
:100A2000729FBB27F00DB11D639FAA27F00DB11D6A
:100A3000AA1F649F6627B00DA11D661F829F2227F3
:100A4000B00DA11D621F739FB00DA11D621F839F7A
:100A5000A00D611D221F749F3327A00D611D231F50
:100A6000849F600D211D822F762F6A2F11249F579E
:100A700050409AF0F1F088234AF0EE0FFF1FBB1FA1
:100A8000661F771F881F91505040A9F79E3F510560
:100A900080F00C94A2040C94ED045F3FE4F3983EC4
:100AA000D4F3869577956795B795F795E7959F5F0A
:100AB000C1F7FE2B880F911D9695879597F908959C
:100AC000EF920F931F93CF93DF9300D000D00F923C
:100AD000CDB7DEB7322F0D8354E047FD54E1242F0C
:100AE00027FD2195E52E032F4D81512F69837A83B0
:100AF0008B839C8369817A818B819C810E948D0587
:100B00008D81912F0F900F900F900F900F90DF918C
:100B1000CF911F910F91EF9008956F927F929F92C6
:100B2000AF92BF92CF92DF92EF92FF920F931F93FB
:100B3000CF93DF93CDB7DEB72D970FB6F894DEBF16
:100B40000FBECDBF6A01122FB02EFBE36F2E6016D1
:100B500008F40BE3FF24F394F00E0F2D27E0AE0111
:100B60004F5F5F4F6A877B878C879D876A857B8510
:100B70008C859D850E942C07AC01A9808A2D8970E7
:100B80003DE2813039F03BE2E1FC04C03E2D3170A2
:100B9000E0FC30E20E2D0071EA2DE870A3FE59C092
:100BA00083E0311184E08117A8F5181B002309F4B4
:100BB0003FC0332319F0F60131936F01F6013396EC
:100BC000E2FE3BC08EE4D6018C9391E411969C9397
:100BD000119712968C93812F9E2F2F2F30E2811127
:100BE00031C0E10FF11D10828EEF9FEF2D960FB6F1
:100BF000F894DEBF0FBECDBFDF91CF911F910F9153
:100C0000FF90EF90DF90CF90BF90AF909F907F903C
:100C10006F90089510E0CACFE92FF22F41938150D1
:100C20009E2F2F2F8111F8CFC10ED11C10E0C1CF04
:100C3000812F9C2D2D2D40E2F5CF8EE6D6018C9391
:100C400091E6C4CFA92FB22F3D9381509A2F2B2F1D
:100C5000C6CF2A2D2470A2FE47C083E0311184E064
:100C6000811710F4E12FE81B002349F1332319F019
:100C7000D6013D936D01C6010396E2FE25C029E42D
:100C8000D6012C932EE411962C93119726E41296FC
:100C90002C932E2F382F492F50E221111EC0E80F20
:100CA000F92FF11DA0CFA92FB22F4D9381509A2F6C
:100CB0002B2F8111F8CFCE0ED11CE0E0D7CF8E2F95
:100CC0009C2D2D2D40E2F5CF29E6D6012C932EE662
:100CD00011962C93119726E6DACFA32FB42F5D93AC
:100CE00021503A2F4B2FD9CFBA0157FF02C070E0E5
:100CF00060E0E1E0F0E0311102C0F0E0E0E0CB01C3
:100D00000196E80FF91F8B2D90E0DC011196B110D0
:100D100002C0B0E0A0E0EA0FFB1F1E171F0619F08B
:100D200014F0212F2E1B011194C0D601E22FF0E206
:100D3000E3FE51C0332329F0F60131936F01011115
:100D400008C0F601322FA0E331114BC0C20ED11CF6
:100D500020E00F2D040F3A81FA2DF071BF2EA4FE72
:100D600003C0313309F401501016F4F5093008F0CE
:100D700008E0DB017A01E01AF10800271127081BBF
:100D8000190BEEE29E2E4A175B0784F1EA16FB066A
:100D90006CF5FA01EA1BFB0B66246394712C6C0E54
:100DA0007D1EE60DF71DA18011973601EFEF6E1A3B
:100DB0007E0AA017B107ECF0F601A082AF3FBA0798
:100DC00031F43601E2E06E0E711CF601918263018E
:100DD000DACFFD93E150E111FCCFC20ED11C20E02F
:100DE000A9CFA1933150B0CF01E0C3CFE0E3AE2E45
:100DF000DBCF80959095861797070CF5861B970B90
:100E0000019661507109860F971F4817590741F4E1
:100E1000363320F4353321F4B11002C081E3A82E1B
:100E2000D601AC92822F962D372D40E281110AC057
:100E3000F301E20FF11D108290E080E0D7CE90E048
:100E400080E0DFCFA92FB32F4D9381509A2F3B2FF6
:100E5000EDCF311171CF7DCF283008F027E0332757
:100E6000DA01990F311D87FD9160009661057105CA
:100E700039F432602E5F3D9330E32A95E1F708950F
:100E80009F3F30F080387105610509F03C5F3C5FA1
:100E90003D93913008F08068911DDF93CF931F93AD
:100EA0000F93FF92EF92192F987F9695E92F9695C1
:100EB0009695E90FFF27EE53FF4F99273327EE242E
:100EC000FF24A701E70105900894079428F4360F42
:100ED000E71EF81E491F511D660F771F881F991FB7
:100EE0000694A1F70590079428F4E70EF81E491F11
:100EF000561FC11D770F881F991F661F0694A1F703
:100F00000590079428F4F80E491F561FC71FD11DDE
:100F1000880F991F661F771F0694A1F70590079405
:100F200020F4490F561FC71FD81F990F661F771F40
:100F3000881F0694A9F784911095177041F0D695F3
:100F4000C79557954795F794E7941A95C1F7E8E642
:100F5000F0E0689415901591359165919591059003
:100F60007FE27395E118F10A430B560BC90BD009C8
:100F7000C0F7E10CF11E431F561FC91FD01D7EF4A0
:100F8000703311F48A95E6CFE894015030F0080FE1
:100F90000AF40027021708F4202F2395022F7A3332
:100FA00028F079E37D932A95E9F710C07D932A957F
:100FB00089F6069497956795379517951794E118D4
:100FC000F10A430B560BC90BD00998F023957E917B
:100FD00073957A3308F070E37C932013B8F77E9111
:100FE00070617D9330F0839571E37D9370E32A9572
:100FF000E1F71124EF90FF900F911F91CF91DF91B6
:0C100000992787FD90950895F894FFCF84
:10100C0054656D70657261747572653A2000C2BA70
:10101C00432C2048756D69646974793A2000250A5F
:10102C000030313233343536373839414243444558
:10103C0046004120535441525420636F6E646974CE
:10104C00696F6E20686173206265656E20747261D1
:10105C006E736D69747465640A0041207265706505
:10106C006174656420535441525420636F6E6469FB
:10107C0074696F6E20686173206265656E2074728E
:10108C00616E736D69747465640A00534C412B571F
:10109C0020686173206265656E207472616E736D79
:1010AC00697474656420616E642041434B206861EF
:1010BC0073206265656E2072656365697665640A86
:1010CC0000534C412B5720686173206265656E207C
:1010DC007472616E736D697474656420616E6420E2
:1010EC004E4F542041434B20686173206265656EFE
:1010FC002072656365697665640A004461746120D9
:10110C006279746520686173206265656E20747203
:10111C00616E736D697474656420616E6420414303
:10112C004B20686173206265656E2072656365692A
:10113C007665640A00446174612062797465206884
:10114C006173206265656E207472616E736D697473
:10115C0074656420616E64204E4F542041434B20D3
:10116C00686173206265656E20726563656976657A
:10117C00640A004172626974726174696F6E206CEA
:10118C006F737420696E20534C41206F7220646120
:10119C0074612062797465730A00534C412B5220A0
:1011AC00686173206265656E207472616E736D691F
:1011BC007474656420616E642041434B20686173D4
:1011CC00206265656E2072656365697665640A00E8
:1011DC00534C412B5220686173206265656E2074FC
:1011EC0072616E736D697474656420616E64204EF7
:1011FC004F542041434B20686173206265656E201B
:10120C0072656365697665640A0044617461206285
:10121C0079746520686173206265656E2072656300
:10122C00656976656420616E642041434B2068617A
:10123C0073206265656E2072657475726E65640AE2
:10124C000044617461206279746520686173206266
:10125C0065656E20726563656976656420616E6490
:10126C00204E4F542041434B2068617320626565CA
:10127C006E2072657475726E65640A00556E6B6EC5
:0C128C006F776E207374617475730A0034
:00000001FF
