:100000000C9434000C943E000C943E000C943E0082
:100010000C943E000C943E000C943E000C943E0068
:100020000C943E000C943E000C943E000C943E0058
:100030000C943E000C943E000C943E000C943E0048
:100040000C943E000C943E000C943E000C943E0038
:100050000C943E000C943E000C943E000C943E0028
:100060000C943E000C943E0011241FBECFEFD8E04C
:10007000DEBFCDBF0E94A4000C94BA000C94000017
:1000800088E08093C4001092C500E1ECF0E080812C
:100090008861808386E08093C20008959091C000BB
:1000A00095FFFCCF8093C6000895CF93DF93EC01BA
:1000B0008991811103C0DF91CF9108950E944E0074
:1000C000FE01319780818A3099F78DE00E944E00C1
:1000D000EFCFEF92FF920F931F93CF93DF9300D058
:1000E00000D000D0CDB7DEB79E838D838B017A011F
:1000F00019821A821B821C8244E050E0CE010196D4
:100100000E94AA0089819A81AB81BC818F3E9E4B5F
:10011000AD4ABE4DB1F4B8016C5F7F4FA701CE016F
:1001200005960E94AA0081E026960FB6F894DEBFDD
:100130000FBECDBFDF91CF911F910F91FF90EF9038
:10014000089580E0F1CF08950E94400081E40E946C
:100150004E00FCCFDC01CB01FC01F999FECF06C0BB
:10016000F2BDE1BDF89A319600B40D924150504075
:08017000B8F70895F894FFCFE1
:00000001FF
