:100000000C9434000C943E000C943E000C943E0082
:100010000C943E000C943E000C943E000C943E0068
:100020000C943E000C943E000C943E000C943E0058
:100030000C943E000C943E000C943E000C943E0048
:100040000C943E000C943E000C943E000C943E0038
:100050000C943E000C943E000C943E000C943E0028
:100060000C943E000C943E0011241FBECFEFD8E04C
:10007000DEBFCDBF0E945D000C9467000C940000B1
:100080009091C00095FFFCCF8093C60008958091A9
:10009000C00087FFFCCF8091C60008951092C50074
:1000A0008093C400E1ECF0E088E180838EE08093EF
:1000B000C2008081806880830895219A88E090E062
:1000C0000E944E000E9447000E944000FBCFF8941F
:0200D000FFCF60
:00000001FF
