:100000000C9434000C9449000C9449000C94490061
:100010000C9449000C9449000C9449000C9449003C
:100020000C9449000C9449000C9449000C9449002C
:100030000C9449000C9449000C9449000C9449001C
:100040000C9449000C9449000C9449000C9449000C
:100050000C9449000C9449000C9449000C944900FC
:100060000C9449000C94490011241FBECFEFD8E036
:10007000DEBFCDBF11E0A0E0B1E0E4E8F1E002C0F6
:1000800005900D92A430B107D9F70E9496000C9408
:10009000C0000C9400000F931F93CF93DF9300D008
:1000A00000D0CDB7DEB78C018091000190910101A5
:1000B000A0910201B091030189839A83AB83BC8331
:1000C000FE01319623E030E0A1E0B0E0C801022E4D
:1000D00002C0959587950A94E2F780FF0BC085B121
:1000E000AD01038002C0440F551F0A94E2F7482B6C
:1000F00045B90CC045B1BD01038002C0660F771F32
:100100000A94E2F7962F9095942395B921503109DE
:1001100031972F3F8FEF3807C9F60F900F900F9050
:100120000F90DF91CF911F910F910895209A219AFE
:10013000229A249A22982498C0E0D0E04A990FC0CD
:100140008FE39CE90197F1F700C000004A9B04C0CF
:10015000CF30D1050CF42196CE010E944B004C9972
:10016000EDCF8FE39CE90197F1F700C000004C9BB5
:1001700003C0209709F02197CE010E944B00DECFEB
:04018000F894FFCF21
:040184000001020470
:00000001FF
