:100000000C9434000C943E000C943E000C943E0082
:100010000C943E000C943E000C943E000C943E0068
:100020000C943E000C943E000C943E000C943E0058
:100030000C943E000C943E000C943E000C943E0048
:100040000C943E000C943E000C943E000C943E0038
:100050000C943E000C943E000C943E000C943E0028
:100060000C943E000C943E0011241FBECFEFD8E04C
:10007000DEBFCDBF0E9492000C94C2010C94000020
:1000800094B121E030E001C0220F8A95EAF7922B6B
:1000900094B90895CF93DF9300D000D0CDB7DEB7E9
:1000A000E0E8F0E0808182688083E1E8F0E0808130
:1000B0008D618083E6E8F0E088E09DE391838083B2
:1000C000808191819C0150E040E029833A834B83F9
:1000D0005C83CA01B9010E94C7002DEC3CEC4CECDA
:1000E0005DE369837A838B839C8369817A818B81C9
:1000F0009C810E942D0169837A838B839C83698113
:100100007A818B819C810E949800462F572F5093B3
:100110008900409388000F900F900F900F90DF910F
:10012000CF91089581E00E9440000E944A00FFCFD5
:100130000E940C0188F09F5798F0B92F9927B7516A
:10014000B0F0E1F0660F771F881F991F1AF0BA957B
:10015000C9F714C0B13091F00E942601B1E00895B2
:100160000C942601672F782F8827B85F39F0B93FA4
:10017000CCF3869577956795B395D9F73EF490952E
:100180008095709561957F4F8F4F9F4F0895E894AC
:1001900009C097FB3EF490958095709561957F4FCF
:1001A0008F4F9F4F9923A9F0F92F96E9BB2793957D
:1001B000F695879577956795B795F111F8CFFAF48D
:1001C000BB0F11F460FF1BC06F5F7F4F8F4F9F4FBE
:1001D00016C0882311F096E911C0772321F09EE81C
:1001E000872F762F05C0662371F096E8862F70E082
:1001F00060E02AF09A95660F771F881FDAF7880F5C
:100200009695879597F9089557FD9058440F551F77
:1002100059F05F3F71F04795880F97FB991F61F088
:100220009F3F79F087950895121613061406551FFF
:10023000F2CF4695F1DF08C0161617061806991F6B
:10024000F1CF86957105610508940895E894BB2760
:1002500066277727CB0197F908950E9440010C94F7
:10026000B1010E94A30138F00E94AA0120F0952359
:1002700011F00C949A010C94A00111240C94270104
:100280000E94040170F3959FC1F3950F50E0551F34
:10029000629FF001729FBB27F00DB11D639FAA27DB
:1002A000F00DB11DAA1F649F6627B00DA11D661F2A
:1002B000829F2227B00DA11D621F739FB00DA11D4B
:1002C000621F839FA00D611D221F749F3327A00D05
:1002D000611D231F849F600D211D822F762F6A2FA1
:1002E00011249F5750409AF0F1F088234AF0EE0F06
:1002F000FF1FBB1F661F771F881F91505040A9F733
:100300009E3F510580F00C949A010C9427015F3FA9
:10031000E4F3983ED4F3869577956795B795F7956E
:10032000E7959F5FC1F7FE2B880F911D96958795E6
:1003300097F9089597F99F6780E870E060E0089565
:100340009FEF80EC089500240A94161617061806ED
:100350000906089500240A941216130614060506C9
:100360000895092E0394000C11F4882352F0BB0F5A
:1003700040F4BF2B11F460FF04C06F5F7F4F8F4FBD
:080380009F4F0895F894FFCF90
:00000001FF
