:100000000C9434000C943E000C943E000C943E0082
:100010000C943E000C943E000C943E000C943E0068
:100020000C943E000C943E000C943E000C943E0058
:100030000C943E000C943E000C943E000C943E0048
:100040000C943E000C943E000C9453000C943E0023
:100050000C943E000C943E000C943E000C943E0028
:100060000C943E000C943E0011241FBECFEFD8E04C
:10007000DEBFCDBF0E948A000C9490000C9400005B
:100080009091C00095FFFCCF8093C60008959FE932
:10009000980F9A3110F4805208959FEB980F9A317F
:1000A00008F4805E08951F920F920FB60F921124EC
:1000B0002F933F934F935F936F937F938F939F9370
:1000C000AF93BF93EF93FF938091C6000E944700C8
:1000D0000E944000FF91EF91BF91AF919F918F914E
:1000E0007F916F915F914F913F912F910F900FBE34
:1000F0000F901F9018951092C5008093C400E1ECFA
:10010000F0E088E180838EE08093C2008081806887
:100110008083089588E090E00E947B007894FFCF70
:04012000F894FFCF81
:00000001FF
