:100000000C9434000C9449000C9449000C94490061
:100010000C9449000C9449000C9449000C9449003C
:100020000C9449000C9449000C9449000C9449002C
:100030000C9449000C9449000C9449000C9449001C
:100040000C9449000C9449000C9449000C9449000C
:100050000C9449000C9449000C9449000C944900FC
:100060000C9449000C94490011241FBECFEFD8E036
:10007000DEBFCDBF11E0A0E0B1E0ECE2F1E002C0F4
:1000800005900D92A430B107D9F70E945F000C943F
:1000900094000C9400009AB121E030E001C0220FDE
:1000A0008A95EAF7922B9AB908959BB121E030E046
:1000B00001C0220F8A95EAF792279BB90895CF9342
:1000C000DF9300D00F92CDB7DEB780910001909101
:1000D0000101A091020189839A83AB8385E00E948C
:1000E0004B0086E00E944B0083E00E944B006E01B3
:1000F00024E0C20ED11C8E010F5F1F4FF801F1905A
:100100008F018F2D0E945500FFEF23ED80E3F1500A
:1001100020408040E1F700C000008F2D0E94550074
:0C012000C016D10659F7E7CFF894FFCFC6
:04012C0005060300C1
:00000001FF
