:100000000C9434000C944A000C943E000C943E0076
:100010000C943E000C943E000C943E000C943E0068
:100020000C943E000C943E000C943E000C943E0058
:100030000C943E000C943E000C943E000C943E0048
:100040000C943E000C943E000C943E000C943E0038
:100050000C943E000C943E000C943E000C943E0028
:100060000C943E000C943E0011241FBECFEFD8E04C
:10007000DEBFCDBF0E9464000C946A000C940000A7
:10008000209A08952298E9E6F0E0808183608083D9
:10009000E89A08951F920F920FB60F9211248F9332
:1000A0009F93F8948FE39CE90197F1F700C000005B
:1000B000789495B181E0892785B99F918F910F90B0
:1000C0000FBE0F901F9018950E9440000E944200A2
:0800D0007894FFCFF894FFCFF4
:00000001FF
