:100000000C9434000C9446000C9446000C9446006A
:100010000C9446000C9446000C9446000C94460048
:100020000C9446000C9446000C9446000C94460038
:100030000C9446000C9446000C9466000C94460008
:100040000C9446000C9446000C9446000C94460018
:100050000C9446000C9446000C9446000C94460008
:100060000C9446000C94460011241FBECFEFD8E03C
:10007000DEBFCDBF21E0A0E0B1E001C01D92A33002
:10008000B207E1F70E94A9000C94D9000C9400007B
:10009000219A0895E0E8F0E0808181608083A1E802
:1000A000B0E08C9182608C93808180688083089519
:1000B00084B5826084BDEEE6F0E08081826080835A
:1000C00085B5836085BD80E887BD08950F920FB622
:1000D0000F921F9211242F933F935F936F937F93FF
:1000E0008F939F93AF93BF93F89420910101309128
:1000F000020180910001232B41F18F5F8093000169
:10010000843631F481E090E0909302018093010104
:10011000809100012FEF829FC001112464E670E0FE
:100120000E94B10070938900609388007894BF9119
:10013000AF919F918F917F916F915F913F912F919F
:100140001F900F900FBE0F90189581508093000163
:10015000DFCF0E9448000E9458000E944A00789415
:10016000FFCF97FB072E16F4009407D077FD09D038
:100170000E94C50007FC05D03EF4909581959F4FE5
:100180000895709561957F4F0895AA1BBB1B51E19F
:1001900007C0AA1FBB1FA617B70710F0A61BB70BF7
:1001A000881F991F5A95A9F780959095BC01CD019C
:0601B0000895F894FFCF52
:00000001FF
