:100000000C9434000C943E000C943E000C943E0082
:100010000C943E000C943E000C943E000C943E0068
:100020000C943E000C943E000C943E000C943E0058
:100030000C943E000C943E000C9465000C943E0021
:100040000C943E000C943E000C943E000C943E0038
:100050000C943E000C943E000C943E000C943E0028
:100060000C943E000C943E0011241FBECFEFD8E04C
:10007000DEBFCDBF0E9484000C948C000C94000065
:10008000219A0895089584B5826084BDEEE6F0E07B
:1000900080818260808385B5816085BD8EEF87BD5C
:1000A0000895E0E8F0E0808183688083E1E8F0E093
:1000B00080818861808380818360808382E390E097
:1000C000909389008093880008951F920F920FB635
:1000D0000F9211242F938F939F93F89495B182E000
:1000E000892785B92FEF87EA91E62150804090401B
:1000F000E1F700C0000078949F918F912F910F90AD
:100100000FBE0F901F9018950E9440000E94430060
:0C0110000E9451007894FFCFF894FFCFBC
:00000001FF
