:100000000C9434000C9451000C9451000C94510049
:100010000C9451000C9451000C9451000C9451001C
:100020000C9451000C9451000C9451000C9451000C
:100030000C9451000C9451000C9481000C945100CC
:100040000C9451000C9451000C9451000C945100EC
:100050000C9451000C9451000C9451000C945100DC
:100060000C9451000C94510011241FBECFEFD8E026
:10007000DEBFCDBF11E0A0E0B1E0E2EBF5E002C0F1
:1000800005900D92A430B107D9F721E0A4E0B1E0CA
:1000900001C01D92A630B207E1F70E9404010C9442
:1000A000D7020C94000094B121E030E001C0220F8F
:1000B0008A95EAF7292B24B9089585B5856085BD11
:1000C00084B5826084BDEEE6F0E08081826080834A
:1000D00086E287BD0895E0E8F0E080818268808351
:1000E000E1E8F0E080818D618083A6E8B0E01196C0
:1000F000FC93EE938D919C9190938900809388005E
:1001000008951F920F920FB60F9211242F933F93D1
:100110004F935F936F937F938F939F93AF93BF930F
:10012000EF93FF9380910401909105012AE037ED50
:1001300043E25CE3892B09F56091000170910101B4
:1001400080910201909103010E94130160930001CC
:1001500070930101809302019093030120E030E04D
:1001600040E85FE30E94650287FD25C081E090E0E2
:1001700090930501809304011EC06091000170916D
:10018000010180910201909103010E94120160938C
:1001900000017093010180930201909303012AE012
:1001A00037ED43EA5CE30E947F01181624F01092B9
:1001B000050110920401609186007091870080E033
:1001C00090E00E94B3012091000130910101409123
:1001D0000201509103010E946A020E9484017093FF
:1001E000890060938800FF91EF91BF91AF919F913B
:1001F0008F917F916F915F914F913F912F910F90D0
:100200000FBE0F901F90189581E090E00E94530060
:1002100080E090E00E9453000E945D000E946B000D
:100220007894FFCF5058BB27AA270E942A010C942C
:100230002B020E941D0238F00E94240220F039F4A3
:100240009F3F19F426F40C941A020EF4E095E7FB94
:100250000C941402E92F0E943C0258F3BA1762076B
:1002600073078407950720F079F4A6F50C945E02D5
:100270000EF4E0950B2EBA2FA02D0B01B9019001C1
:100280000C01CA01A0011124FF27591B99F0593F05
:1002900050F4503E68F11A16F040A22F232F342F4D
:1002A0004427585FF3CF469537952795A795F0409B
:1002B0005395C9F77EF41F16BA0B620B730B840BB0
:1002C000BAF09150A1F0FF0FBB1F661F771F881F68
:1002D000C2F70EC0BA0F621F731F841F48F48795C0
:1002E00077956795B795F7959E3F08F0B0CF9395B2
:1002F000880F08F09927EE0F9795879508950E942B
:10030000F00108F481E008950E94440288F09F57AC
:1003100098F0B92F9927B751B0F0E1F0660F771F29
:10032000881F991F1AF0BA95C9F714C0B13091F01F
:100330000E945E02B1E008950C945E02672F782F50
:100340008827B85F39F0B93FCCF3869577956795E4
:10035000B395D9F73EF490958095709561957F4F50
:100360008F4F9F4F0895E89409C097FB3EF49095F6
:100370008095709561957F4F8F4F9F4F9923A9F07E
:10038000F92F96E9BB279395F6958795779567950D
:10039000B795F111F8CFFAF4BB0F11F460FF1BC051
:1003A0006F5F7F4F8F4F9F4F16C0882311F096E9E4
:1003B00011C0772321F09EE8872F762F05C0662392
:1003C00071F096E8862F70E060E02AF09A95660F4B
:1003D000771F881FDAF7880F9695879597F9089504
:1003E000990F0008550FAA0BE0E8FEEF1616170646
:1003F000E807F907C0F012161306E407F50798F0AE
:10040000621B730B840B950B39F40A2661F0232BC6
:10041000242B252B21F408950A2609F4A140A69542
:100420008FEF811D811D089597F99F6780E870E027
:1004300060E008959FEF80EC089500240A9416165A
:10044000170618060906089500240A9412161306C2
:10045000140605060895092E0394000C11F4882350
:1004600052F0BB0F40F4BF2B11F460FF04C06F5F6C
:100470007F4F8F4F9F4F089557FD9058440F551F42
:1004800059F05F3F71F04795880F97FB991F61F016
:100490009F3F79F087950895121613061406551F8D
:1004A000F2CF4695F1DF08C0161617061806991FF9
:1004B000F1CF86957105610508940895E894BB27EE
:1004C00066277727CB0197F908950E94F00108F479
:1004D0008FEF08950E947D020C942B020E941D0252
:1004E00038F00E94240220F0952311F00C9414029D
:1004F0000C941A0211240C945F020E943C0270F3C7
:10050000959FC1F3950F50E0551F629FF001729FB8
:10051000BB27F00DB11D639FAA27F00DB11DAA1FC7
:10052000649F6627B00DA11D661F829F2227B00D14
:10053000A11D621F739FB00DA11D621F839FA00D9F
:10054000611D221F749F3327A00D611D231F849FEF
:10055000600D211D822F762F6A2F11249F57504046
:100560009AF0F1F088234AF0EE0FFF1FBB1F661FC1
:10057000771F881F91505040A9F79E3F510580F08A
:100580000C9414020C945F025F3FE4F3983ED4F3A2
:10059000869577956795B795F795E7959F5FC1F72E
:1005A000FE2B880F911D9695879597F90895F894DD
:0205B000FFCF7B
:0405B200CDCCCC3DA3
:00000001FF
