:100000000C9434000C943E000C943E000C943E0082
:100010000C943E000C943E000C943E000C943E0068
:100020000C943E000C943E000C943E000C943E0058
:100030000C943E000C943E000C943E000C943E0048
:100040000C943E000C943E000C943E000C943E0038
:100050000C943E000C943E000C943E000C943E0028
:100060000C943E000C943E0011241FBECFEFD8E04C
:10007000DEBFCDBF0E9440000C9458000C940000DD
:10008000209A229880E090E04A99FECFEFE3FCE9C5
:100090003197F1F700C000004A9B02C0F1E08F27C2
:1000A000009721F0289A81E090E0EECF2898ECCFDD
:0400B000F894FFCFF2
:00000001FF
